{
  "contractName": "tickTackBlock",
  "abi": [
    {
      "anonymous": false,
      "inputs": [
        {
          "indexed": true,
          "internalType": "string",
          "name": "_player",
          "type": "string"
        },
        {
          "indexed": true,
          "internalType": "int256",
          "name": "_squareId",
          "type": "int256"
        }
      ],
      "name": "playerPlay",
      "type": "event"
    },
    {
      "inputs": [
        {
          "internalType": "string",
          "name": "_player",
          "type": "string"
        },
        {
          "internalType": "int256",
          "name": "_squareId",
          "type": "int256"
        }
      ],
      "name": "play",
      "outputs": [],
      "stateMutability": "nonpayable",
      "type": "function"
    }
  ],
  "bytecode": "0x608060405234801561001057600080fd5b506101da806100206000396000f3fe608060405234801561001057600080fd5b5060043610610048576000357c010000000000000000000000000000000000000000000000000000000090048063295bada71461004d575b600080fd5b6101106004803603604081101561006357600080fd5b810190808035906020019064010000000081111561008057600080fd5b82018360208201111561009257600080fd5b803590602001918460018302840111640100000000831117156100b457600080fd5b91908080601f016020809104026020016040519081016040528093929190818152602001838380828437600081840152601f19601f82011690508083019250505050505050919291929080359060200190929190505050610112565b005b80826040518082805190602001908083835b602083106101475780518252602082019150602081019050602083039250610124565b6001836020036101000a03801982511681845116808217855250505050505090500191505060405180910390207fb58ee371e8d56a2b283ffefed4473aa5d111c3920c615b32c79a95841843f61b60405160405180910390a3505056fea2646970667358221220d5d19871794d3253638275a8537441d6e8122b67bf82e8522d487a9bcd7c4f5364736f6c634300060a0033",
  "immutableReferences": {},
  "source": "pragma solidity ^0.6.10; // Solidity version (latest - Jun 2020)\n// SPDX-License-Identifier: TODO\n\ncontract tickTackBlock{\n  string player;\n  int squareId;\n\n  event playerPlay(string indexed _player, int indexed _squareId);\n\n  function play(string memory _player, int _squareId) public {\n    emit playerPlay(_player, _squareId);\n  }\n\n}\n",
  "sourcePath": "/home/jorge/f98_github/tictacblock/src/contracts/tickTackBlock.sol",
  "compiler": {
    "name": "solc",
    "version": "0.6.10+commit.00c0fcaf.Emscripten.clang"
  },
  "schemaVersion": "3.2.2",
  "updatedAt": "2020-07-13T09:45:56.061Z",
  "networkType": "ethereum",
  "devdoc": {
    "methods": {}
  },
  "userdoc": {
    "methods": {}
  }
}